:020000001328C3
:100008007E14803120007F08F0008B190B1C0E280D
:10001800CF260B1070082000FF007E10090014285E
:100028007E1020002D2A2034A134DC342734EE340D
:10003800133449340D34F7340934F9340734A5340A
:100048000634B2340534FC3404346E340434FC34DD
:100058000334A03403345234033411340334D93410
:100068000234A83402347E3402345834023437342B
:10007800023419340234FE340134E6340134D03405
:100088000134BC340134A93401349834013488343F
:1000980001347A3401346C3401346034013454341A
:1000A8000134493401343F340134353401342C34BB
:1000B8000134243401341B340134143401340D3434
:1000C800013406340134FF340034F9340034F33495
:1000D8000034ED340034E8340034E3340034DE34E2
:1000E8000034D9340034D5340034D0340034CC341E
:1000F8000034C8340034C4340034C1340034BD344E
:100108000034BA340034B6340034B3340034B03474
:100118000034AD340034AA340034A7340034A53494
:100128000034A23400349F3400349D3400349B34AE
:1001380000349834003496340034943400349234C3
:100148000034903400348E3400348C3400348A34D3
:1001580000348834003486340034853400348334E1
:10016800003481340034803400347E3400347C34EC
:1001780000347B34003479340034783400347734F4
:1001880000347534003474340034733400347134FA
:100198000034703400346F3400346E3400346D34FD
:1001A80000346B3400346A34003469340034683401
:1001B8000034673400346634003465340034643401
:1001C8000034633400346234003461340034603401
:1001D80000345F3400345E3400345E3400345D34FF
:1001E80000345C3400345B3400345A3400345A34FC
:1001F80000345934003458340034573400345634F9
:1002080000345634003455340034543400345434F3
:1002180000345334003452340034523400345134EE
:10022800003450340034503400344F3400344E34E9
:1002380000344E3400344D3400344D3400344C34E2
:1002480000344C3400344B3400344A3400344A34DB
:1002580000344934003449340034483400344834D4
:1002680000344734003447340034463400344634CC
:1002780000344534003445340034443400344434C4
:1002880000344434003443340034433400344234BA
:1002980000344234003441340034413400344134B1
:1002A800003440340034403400343F3400343F34A8
:1002B80000343F3400343E3400343E3400343D349E
:1002C80000343D3400343D3400343C3400343C3494
:1002D80000343C3400343B3400343B3400343B3489
:1002E80000343A3400343A3400343A34003439347F
:1002F8000034393400343934003438340034383474
:100308000034383400343734003437340034373468
:10031800003437340034363400343634003436345C
:100328000034353400343534003435340034353451
:100338000034343400343434003434340034343445
:100348000034333400343334003433340034333439
:10035800003432340034323400343234003432342D
:100368000034313400343134003431340034313421
:100378000034303400343034003430340034303415
:1003880000342F3400342F3400342F3400342F3409
:1003980000342F3400342E3400342E3400342E34FC
:1003A80000342E3400342E3400342D3400342D34EF
:1003B80000342D3400342D3400342D3400342C34E2
:1003C80000342C3400342C3400342C3400342C34D5
:1003D80000342B3400342B3400342B3400342B34C9
:1003E80000342B3400342B3400342A3400342A34BB
:1003F80000342A3400342A3400342A3400342934AE
:1004080000342934003429340034283400342834A2
:1004180000342834003426340034243400342234A0
:100428000034203400341E3400341C3400341A34B0
:1004380000341834003416340034143400341234C0
:100448000034103400340E3400340C3400340A34D0
:1004580000341B278B170B172000CD01CE01D101CB
:10046800D20103100C1E0314003003180130D6000B
:100478001630A2008630A30035308E2335307E2614
:100488006D302000A2008630A300C330A40086305F
:10049800A50035308E2335307E2603302000B40089
:1004A8008A30B3005530890B572AB30B572AB40B3F
:1004B800572A003202302000B4000430B300BA30AA
:1004C800890B642AB30B642AB40B642A00006430D5
:1004D8002000B3003308A50002307125200026084B
:1004E800D5002508D400E630A2008630A3005508C0
:1004F800A5005408A40035308E2335307E26AA3056
:100508002000A2008630A3005508B4005408B300A8
:100518003408B300B4013308A4003408A50035300A
:100528008E2335307E269D302000A2008630A30021
:100538005608B300B4013308A4003408A5003530C8
:100548008E2335307E26B7302000A2008630A300E7
:100558005808A5005708A40035308E2335307E266C
:10056800200056080319E12A003058023E300319CA
:100578005702031CDC2A5708F1005808F200F3015F
:10058800F4010030F8003D30F7000930F600003083
:10059800F5009C2472082000CC007108CB00F030D4
:1005A800A2008630A3004C08A5004B08A400E62A48
:1005B8008F302000A2008630E52AFA302000A20001
:1005C8008630A30035308E2335307E26003020005B
:1005D8000C1A0130560603190F2B00300C1A013083
:1005E800D6005608031D0F2B3B001B082000B30044
:1005F8003308D30004303B009B0060309E0023305A
:100608009500F4309600D4309300303094002000E8
:1006180053083B009B002000560803195E2A4D0929
:10062800B3004E09B400B30A0319B40A54083307D7
:10063800D1005508343DD2005208803AB3007F30CB
:100648003302031D292BC5305102031C372B200010
:100658005208803AB30080303302031D352B3C30FA
:100668005102031C4F2B20005508B4005408B30056
:100678003408B300B401B335B40D17303307840020
:100688008030343D8500003FD700013FD800550831
:10069800CE005408CD0020004A085806031D562BEA
:1006A8004908570603195E2A5808CA005708C9009E
:1006B8003B001B082000B3003308D30004303B0084
:1006C8009B009E01200057083B0095002000580819
:1006D8003B00960020005808B4005708B300B43611
:1006E800B30C3308CF003408D0004F083B00930008
:1006F800200050083B009400200053083B009B005A
:100708000D302000B300FB30890B882BB30B882BEE
:1007180000325E2A2000B2002430A6002608AE006F
:100728002308A7002208A600A20A0319A30A26087C
:100738008400270885000008A8002808B1003108AF
:100748000319972C253031060319B62B3108A6005A
:10075800320886008701260881000130A600260895
:10076800B207942BAB01E82B2E0886008701403F87
:10077800AC00413FAD000230A6002608AE072C08A9
:100788002D04031DCB2B1430AC008730AD002C0892
:1007980084002D08850012000319942B2C0884006E
:1007A8002D0885000008A600320886008701260863
:1007B80081000130AC070030AD3D0130A6002608AD
:1007C800B207CB2B2B17052C2308A7002208A6005D
:1007D800A20A0319A30A260884002708850000082E
:1007E800B100003A0319972C643A0319052C0D3A05
:1007F8000319052C1A3A0319B82B063A0319E62BE4
:10080800942B2B1B1E2C2E0886008701403FAF001F
:10081800413FB0000230A6002608AE07B01F292CC1
:100828000330A6002608AB04AF09B009AF0A0319C4
:10083800B00A292C2E0886008701403FAF00413FAF
:10084800B0000230A6002608AE07B101B10A053093
:10085800310603194E2C3108A600A701A635A70DAD
:100868000C30260784008630273D8500003FA8000D
:10087800013FA90029083002031D442C28082F0233
:10088800031C4E2C0130A6002608B107053031069E
:10089800031D2F2C2B08033903195D2C2D30A600BE
:1008A800320886008701260881000130A600260844
:1008B800B2073108A6002608AA00FF30A6002608BD
:1008C800AA072A0A0319942B0A30F9000030FA0003
:1008D8002A08A600A701A635A70D0C302607840014
:1008E8008630273D8500003FF100013FF2003008C7
:1008F800F4002F08F300AB257208FC007108FB0018
:10090800DF257908303E2000A8002808B10031080A
:10091800A600320886008701260881000130A6005B
:100928002608B207612C3208860087018101080079
:100938002000A101F41FAD2CF109F209F309F40913
:10094800F10A0319F20A0319F30A0319F40AA101B7
:10095800A10AF81FBE2CF509F609F709F809F50AE6
:100968000319F60A0319F70A0319F80A0130F900FE
:100978007908A1060030A5000030A4000030A300CB
:100988000030A20074087304720471040319072D5F
:10099800A001A00AF41BDC2C0130F135F20DF30D97
:1009A800F40D890BD12C0130F9007908A007CE2C61
:1009B8000130A235A30DA40DA50D890BDD2C7408FB
:1009C8007802031DF12C73087702031DF12C7208BD
:1009D8007602031DF12C71087502031CFC2C7108AA
:1009E800F5027208F63B7308F73B7408F83B2214CB
:1009F8000130F436F30CF20CF10C890BFD2C0130AC
:100A0800A002031DDC2C21080319152DA209A30936
:100A1800A409A509A20A0319A30A0319A40A031918
:100A2800A50A2508F4002408F3002308F200220888
:100A3800F100080000302000A3000030A2000030C0
:100A4800A1000030A0007408730472047104031933
:100A5800682DA401A40AF41B3D2D0130F135F20DD7
:100A6800F30DF40D890B322D0130F9007908A40734
:100A78002F2D0130A035A10DA20DA30D890B3E2D00
:100A880074087802031D522D73087702031D522D36
:100A980072087602031D522D71087502031C5D2D24
:100AA8007108F5027208F63B7308F73B7408F83BC7
:100AB80020140130F436F30CF20CF10C890B5E2D86
:100AC8000130A402031D3D2D2308F4002208F30081
:100AD8002108F2002008F10008002000AB000030D7
:100AE800AF000030AE000030AD000030AC00B00107
:100AF8002508300203188F2D2B085926710820006D
:100B0800AC077208AD3D0030AE3DAF3D0130A700E7
:100B18002708B0077C2D2508A700A801A901AA016C
:100B28002A08F4002908F3002808F2002708F10031
:100B38002F08F8002E08F7002D08F6002C08F500FD
:100B48001E2572082000A6007108A5000800F601FD
:100B5800F701710872040319DA2DF801F80AF21B7B
:100B6800BF2D0130F135F20D890BB62D0130F5009E
:100B78007508F807B32D0130F635F70D890BC02D30
:100B880072087402031DCA2D71087302031CD12D4B
:100B98007108F3027208F43B76140130F236F10C56
:100BA800890BD22D0130F802031DBF2D7708F20002
:100BB8007608F100080079087A040319072E200046
:100BC800A101A10AFA1BF22D0130F935FA0D890BA2
:100BD800E92D0130A0002008A107E62D7A087C0243
:100BE800031DF82D79087B02031CFE2D7908FB02F2
:100BF8007A08FC3B0130FA36F90C890BFF2D0130DD
:100C0800A102031DF22D7C08FA007B08F9000800F8
:100C1800013400340A34003464340034E8340334D2
:100C2800103427340A340A342334233423342D343B
:100C38002D342D3450344F34573445345234213404
:100C48002D342D342D342334233423340A34003402
:100C58003B009C019D0160309E009F01A001920114
:100C6800910130309400D4309300F4309600233052
:100C780095009801013097009A019901C0309B00B6
:100C8800080022008C01043023008C000B30240063
:100C98008C001F3021008C009517013022009D0028
:100CA8002700111612168B150800F4007408F300BB
:100CB800F30DF30D21001D087306833973069D009B
:100CC8001D149D149D18662E1C08F2001B08F100C7
:100CD80008000A344234753469346C34643464343A
:100CE8006134743465343A342034253473340A3426
:100CF8000A340034F30073088600870101080319D9
:100D0800080073088600870101080C270130F200EB
:100D18007208F3077F2E46347234653471343A34DE
:100D280020343E34363430346B3448347A340A3420
:100D38000034483446345F346D346F346434653479
:100D48003A342034253464340A3400344134443489
:100D5800433420344D34533442343A342034253427
:100D680075340A340034703477346D345F34703439
:100D780072343A342034253475340A3400344E340D
:100D88006F347634203433343034203432343034D1
:100D98003134373400342700111A131ED52E13129C
:100DA8000800121E0800131E08001312080008305D
:100DB80023009F0090309D0024309E0033309B001C
:100DC8009C0108000A344134443443343A34203412
:100DD800253475340A340034463472346534713439
:100DE8003A342034253475340A34003446347234A5
:100DF800653471343A34203431340A3400340130E3
:100E080021009D0010309E009F019B019C0108005D
:100E1800F1002000111E0D2F710823009A00080010
:100E280028346E3475346C346C34293400344526D7
:100E3800212703272C26DB2608006830210099008B
:040E48009801080005
:020000040001F9
:04000E00E4FFFFFE0E
:00000001FF
