:020000001328C3
:100008007E14803120007F08F0008B190B1C0E280D
:10001800CB260B1070082000FF007E100900142862
:100028007E102000172ADC342734EE341334493488
:100038000D34F7340934F9340734A5340634B234AE
:100048000534FC3404346E340434FC340334A034F2
:1000580003345234033411340334D9340234A83409
:1000680002347E34023458340234373402341934BA
:100078000234FE340134E6340134D0340134BC3463
:100088000134A934013498340134883401347A3481
:1000980001346C340134603401345434013449344B
:1000A80001343F340134353401342C3401342434E0
:1000B80001341B340134143401340D340134063452
:1000C8000134FF340034F9340034F3340034ED34AF
:1000D8000034E8340034E3340034DE340034D934F6
:1000E8000034D5340034D0340034CC340034C8342F
:1000F8000034C4340034C1340034BD340034BA345C
:100108000034B6340034B3340034B0340034AD3481
:100118000034AA340034A7340034A5340034A2349F
:1001280000349F3400349D3400349B3400349834B8
:1001380000349634003494340034923400349034CB
:1001480000348E3400348C3400348A3400348834DB
:1001580000348634003485340034833400348134E8
:100168000034803400347E3400347C3400347B34F2
:1001780000347934003478340034773400347534FA
:1001880000347434003473340034713400347034FF
:1001980000346F3400346E3400346D3400346B3402
:1001A80000346A3400346934003468340034673405
:1001B8000034663400346534003464340034633405
:1001C80000346234003461340034603400345F3405
:1001D80000345E3400345E3400345D3400345C3402
:1001E80000345B3400345A3400345A3400345934FF
:1001F80000345834003457340034563400345634FC
:1002080000345534003454340034543400345334F6
:1002180000345234003452340034513400345034F1
:100228000034503400344F3400344E3400344E34EB
:1002380000344D3400344D3400344C3400344C34E4
:1002480000344B3400344A3400344A3400344934DE
:1002580000344934003448340034483400344734D6
:1002680000344734003446340034463400344534CE
:1002780000344534003444340034443400344434C5
:1002880000344334003443340034423400344234BC
:1002980000344134003441340034413400344034B3
:1002A8000034403400343F3400343F3400343F34A9
:1002B80000343E3400343E3400343D3400343D34A0
:1002C80000343D3400343C3400343C3400343C3495
:1002D80000343B3400343B3400343B3400343A348B
:1002E80000343A3400343A34003439340034393480
:1002F8000034393400343834003438340034383475
:100308000034373400343734003437340034373469
:10031800003436340034363400343634003435345E
:100328000034353400343534003435340034343452
:100338000034343400343434003434340034333446
:10034800003433340034333400343334003432343A
:10035800003432340034323400343234003431342E
:100368000034313400343134003431340034303422
:1003780000343034003430340034303400342F3416
:1003880000342F3400342F3400342F3400342F3409
:1003980000342E3400342E3400342E3400342E34FD
:1003A80000342E3400342D3400342D3400342D34F0
:1003B80000342D3400342D3400342C3400342C34E3
:1003C80000342C3400342C3400342C3400342B34D6
:1003D80000342B3400342B3400342B3400342B34C9
:1003E80000342B3400342A3400342A3400342A34BC
:1003F80000342A3400342A340034293400342934AF
:1004080000342934003428340034283400342834A3
:1004180000342634003424340034223400342034A8
:1004280000341E34003417278B170B172000CD011A
:10043800CE01D101D20103100C1E031400300318A1
:100448000130D6001230A2008630A30035308A234E
:1004580035307A2669302000A2008630A300BF30EC
:10046800A4008630A50035308A2335307A2603303B
:100478002000B4008A30B3005530890B412AB30BF1
:10048800412AB40B412A003202302000B400043063
:10049800B300BA30890B4E2AB30B4E2AB40B4E2A3E
:1004A800000064302000B3003308A50002306D2539
:1004B80020002608D5002508D400E230A2008630A6
:1004C800A3005508A5005408A40035308A23353008
:1004D8007A26A6302000A2008630A3005508B40072
:1004E8005408B3003408B300B4013308A400340836
:1004F800A50035308A2335307A2699302000A200AD
:100508008630A3005608B300B4013308A4003408A9
:10051800A50035308A2335307A26B3302000A20072
:100528008630A3005808A5005708A40035308A2350
:1005380035307A26200056080319CB2A0030580295
:100548003E3003195702031CC62A5708F100580801
:10055800F200F301F4010030F8003D30F7000930F3
:10056800F6000030F500982472082000CC007108CD
:10057800CB00EC30A2008630A3004C08A5004B0845
:10058800A400D02A8B302000A2008630CF2AF63073
:100598002000A2008630A30035308A2335307A2621
:1005A800003020000C1A013056060319F92A0030D1
:1005B8000C1A0130D6005608031DF92A3B001B0807
:1005C8002000B3003308D30004303B009B006030A8
:1005D8009E0023309500F4309600D43093003030DC
:1005E8009400200053083B009B0020005608031984
:1005F800482A4D09B3004E09B400B30A0319B40AD6
:1006080054083307D1005508343DD2005208803AC7
:10061800B3007F303302031D132BC5305102031C76
:10062800212B20005208803AB30080303302031D8A
:100638001F2B3C305102031C392B20005508B400F5
:100648005408B3003408B300B401B335B40D1730FF
:10065800330784008030343D8500003FD700013FD8
:10066800D8005508CE005408CD0020004A08580686
:10067800031D402B490857060319482A5808CA0081
:100688005708C9003B001B082000B3003308D300FB
:1006980004303B009B009E01200057083B0095005A
:1006A80020005808B4005708B3000430B436B30C1F
:1006B800890B5A2B33083B00960020005808B400D9
:1006C8005708B300B436B30C3308CF003408D00051
:1006D8004F083B00930020005008B4004F08B300B7
:1006E8000430B436B30C890B752B33083B009400E7
:1006F800200053083B009B000D302000B300FB3066
:10070800890B842BB30B842B0032482A2000B200BB
:100718002430A6002608AE002308A7002208A60059
:10072800A20A0319A30A26088400270885000008DE
:10073800A8002808B10031080319932C2530310688
:100748000319B22B3108A600320886008701260853
:1007580081000130A6002608B207902BAB01E42BDC
:100768002E0886008701403FAC00413FAD000230B3
:10077800A6002608AE072C082D04031DC72B103031
:10078800AC008730AD002C0884002D0885001200CD
:100798000319902B2C0884002D0885000008A6005A
:1007A800320886008701260881000130AC07003036
:1007B800AD3D0130A6002608B207C72B2B17012C28
:1007C8002308A7002208A600A20A0319A30A2608DC
:1007D8008400270885000008B100003A0319932C0B
:1007E800643A0319012C0D3A0319012C1A3A03191A
:1007F800B42B063A0319E22B902B2B1B1A2C2E082C
:1008080086008701403FAF00413FB0000230A6009C
:100818002608AE07B01F252C0330A6002608AB0417
:10082800AF09B009AF0A0319B00A252C2E088600B3
:100838008701403FAF00413FB0000230A6002608C4
:10084800AE07B101B10A0530310603194A2C310847
:10085800A600A701A635A70D083026078400863014
:10086800273D8500003FA800013FA9002908300264
:10087800031D402C28082F02031C4A2C0130A60017
:100888002608B10705303106031D2B2C2B08033928
:100898000319592C2D30A600320886008701260836
:1008A80081000130A6002608B2073108A6002608F4
:1008B800AA00FF30A6002608AA072A0A0319902BC7
:1008C8000A30F9000030FA002A08A600A701A63568
:1008D800A70D0830260784008630273D8500003F95
:1008E800F100013FF2003008F4002F08F300A725BB
:1008F8007208FC007108FB00DB257908303E2000F7
:10090800A8002808B1003108A6003208860087012F
:10091800260881000130A6002608B2075D2C32089F
:1009280086008701810108002000A101F41FA92C7D
:10093800F109F209F309F409F10A0319F20A031992
:10094800F30A0319F40AA101A10AF81FBA2CF50940
:10095800F609F709F809F50A0319F60A0319F70A57
:100968000319F80A0130F9007908A1060030A5003A
:100978000030A4000030A3000030A2007408730403
:10098800720471040319032DA001A00AF41BD82CCA
:100998000130F135F20DF30DF40D890BCD2C01303A
:1009A800F9007908A007CA2C0130A235A30DA40DBF
:1009B800A50D890BD92C74087802031DED2C73083A
:1009C8007702031DED2C72087602031DED2C7108C9
:1009D8007502031CF82C7108F5027208F63B7308BF
:1009E800F73B7408F83B22140130F436F30CF20C90
:1009F800F10C890BF92C0130A002031DD82C210819
:100A08000319112DA209A309A409A509A20A03190A
:100A1800A30A0319A40A0319A50A2508F40024083F
:100A2800F3002308F2002208F1000800003020003B
:100A3800A3000030A2000030A1000030A00074081C
:100A48007304720471040319642DA401A40AF41B2D
:100A5800392D0130F135F20DF30DF40D890B2E2DE2
:100A68000130F9007908A4072B2D0130A035A10D1C
:100A7800A20DA30D890B3A2D74087802031D4E2D83
:100A880073087702031D4E2D72087602031D4E2D42
:100A980071087502031C592D7108F5027208F63B9E
:100AA8007308F73B7408F83B20140130F436F30C54
:100AB800F20CF10C890B5A2D0130A402031D392DBB
:100AC8002308F4002208F3002108F2002008F100AE
:100AD80008002000AB000030AF000030AE0000304E
:100AE800AD000030AC00B0012508300203188B2D92
:100AF8002B08552671082000AC077208AD3D003060
:100B0800AE3DAF3D0130A7002708B007782D250876
:100B1800A700A801A901AA012A08F4002908F300DE
:100B28002808F2002708F1002F08F8002E08F7001F
:100B38002D08F6002C08F5001A2572082000A600DA
:100B48007108A5000800F601F7017108720403197D
:100B5800D62DF801F80AF21BBB2D0130F135F20D44
:100B6800890BB22D0130F5007508F807AF2D01305B
:100B7800F635F70D890BBC2D72087402031DC62DBE
:100B880071087302031CCD2D7108F3027208F43B3F
:100B980076140130F236F10C890BCE2D0130F802B3
:100BA800031DBB2D7708F2007608F10008007908CC
:100BB8007A040319032E2000A101A10AFA1BEE2DC5
:100BC8000130F935FA0D890BE52D0130A000200818
:100BD800A107E22D7A087C02031DF42D79087B0217
:100BE800031CFA2D7908FB027A08FC3B0130FA361F
:100BF800F90C890BFB2D0130A102031DEE2D7C0899
:100C0800FA007B08F9000800013400340A34003483
:100C180064340034E8340334103427340A340A3492
:100C28002334233423342D342D342D3450344F348D
:100C380057344534523421342D342D342D34233453
:100C4800233423340A3400343B009C019D01603076
:100C58009E009F01A0019201910130309400D43090
:100C68009300F430960023309500980101309700E6
:100C78009A019901C0309B00080022008C010430C1
:100C880023008C000B3024008C001F3021008C00C6
:100C98009517013022009D002700111612168B159A
:100CA8000800F4007408F300F30DF30D21001D088B
:100CB8007306833973069D001D149D149D18622EBA
:100CC8001C08F2001B08F10008000A34423475348D
:100CD80069346C34643464346134743465343A345B
:100CE8002034253473340A340A340034F30073088A
:100CF8008600870101080319080073088600870128
:100D0800010808270130F2007208F3077B2E4634E9
:100D18007234653471343A3420343E3436343034E5
:100D28006B3448347A340A340034483446345F34F7
:100D38006D346F34643465343A3420342534643483
:100D48000A34003441344434433420344D34533469
:100D580042343A342034253475340A34003470343B
:100D680077346D345F34703472343A342034253437
:100D780075340A3400344E346F34763420343334C6
:100D880030342034323430343134373400342700AE
:100D9800111A131ED12E13120800121E0800131E5A
:100DA800080013120800083023009F0090309D00AF
:100DB80024309E0033309B009C0108000A344134E3
:100DC800443443343A342034253475340A340034F6
:100DD80046347234653471343A34203425347534E9
:100DE8000A34003446347234653471343A34203469
:100DF80031340A340034013021009D0010309E0047
:100E08009F019B019C010800F1002000111E092F81
:100E1800710823009A00080028346E3475346C3445
:100E28006C342934003441261D27FF262826D7266E
:0C0E3800080068302100990098010800B3
:020000040001F9
:04000E00E4FFFFFE0E
:00000001FF
