:020000001328C3
:100008007E14803120007F08F0008B190B1C0E280D
:10001800BB260B1070082000FF007E100900142872
:100028007E102000192A00347134DC342734EE3471
:10003800133449340D34F7340934F9340734A5340A
:100048000634B2340534FC3404346E340434FC34DD
:100058000334A03403345234033411340334D93410
:100068000234A83402347E3402345834023437342B
:10007800023419340234FE340134E6340134D03405
:100088000134BC340134A93401349834013488343F
:1000980001347A3401346C3401346034013454341A
:1000A8000134493401343F340134353401342C34BB
:1000B8000134243401341B340134143401340D3434
:1000C800013406340134FF340034F9340034F33495
:1000D8000034ED340034E8340034E3340034DE34E2
:1000E8000034D9340034D5340034D0340034CC341E
:1000F8000034C8340034C4340034C1340034BD344E
:100108000034BA340034B6340034B3340034B03474
:100118000034AD340034AA340034A7340034A53494
:100128000034A23400349F3400349D3400349B34AE
:1001380000349834003496340034943400349234C3
:100148000034903400348E3400348C3400348A34D3
:1001580000348834003486340034853400348334E1
:10016800003481340034803400347E3400347C34EC
:1001780000347B34003479340034783400347734F4
:1001880000347534003474340034733400347134FA
:100198000034703400346F3400346E3400346D34FD
:1001A80000346B3400346A34003469340034683401
:1001B8000034673400346634003465340034643401
:1001C8000034633400346234003461340034603401
:1001D80000345F3400345E3400345E3400345D34FF
:1001E80000345C3400345B3400345A3400345A34FC
:1001F80000345934003458340034573400345634F9
:1002080000345634003455340034543400345434F3
:1002180000345334003452340034523400345134EE
:10022800003450340034503400344F3400344E34E9
:1002380000344E3400344D3400344D3400344C34E2
:1002480000344C3400344B3400344A3400344A34DB
:1002580000344934003449340034483400344834D4
:1002680000344734003447340034463400344634CC
:1002780000344534003445340034443400344434C4
:1002880000344434003443340034433400344234BA
:1002980000344234003441340034413400344134B1
:1002A800003440340034403400343F3400343F34A8
:1002B80000343F3400343E3400343E3400343D349E
:1002C80000343D3400343D3400343C3400343C3494
:1002D80000343C3400343B3400343B3400343B3489
:1002E80000343A3400343A3400343A34003439347F
:1002F8000034393400343934003438340034383474
:100308000034383400343734003437340034373468
:10031800003437340034363400343634003436345C
:100328000034353400343534003435340034353451
:100338000034343400343434003434340034343445
:100348000034333400343334003433340034333439
:10035800003432340034323400343234003432342D
:100368000034313400343134003431340034313421
:100378000034303400343034003430340034303415
:1003880000342F3400342F3400342F3400342F3409
:1003980000342F3400342E3400342E3400342E34FC
:1003A80000342E3400342E3400342D3400342D34EF
:1003B80000342D3400342D3400342D3400342C34E2
:1003C80000342C3400342C3400342C3400342C34D5
:1003D80000342B3400342B3400342B3400342B34C9
:1003E80000342B3400342B3400342A3400342A34BB
:1003F80000342A3400342A3400342A3400342934AE
:1004080000342934003429340034283400342834A2
:1004180000342834003426340034243400342234A0
:100428000034203400341E34003407278B170B1790
:100438002000CD01CE01D101D20103100C1E0314FE
:10044800003003180130D6000230A2008630A30025
:1004580035307A2335306A2659302000A20086309C
:10046800A300AF30A4008630A50035307A2335309C
:100478006A2603302000B4008A30B3005530890B57
:10048800432AB30B432AB40B432A0032023020001C
:10049800B4000430B300BA30890B502AB30B502A89
:1004A800B40B502A000064302000B3003308A500C4
:1004B80002305D2520002608D5002508D400D2305A
:1004C800A2008630A3005508A5005408A4003530C2
:1004D8007A2335306A2696302000A2008630A300A1
:1004E8005508B4005408B3003408B300B401330805
:1004F800A4003408A50035307A2335306A268930BF
:100508002000A2008630A3005608B300B4013308C7
:10051800A4003408A50035307A2335306A26A33084
:100528002000A2008630A3005808A5005708A400A0
:1005380035307A2335306A26200056080319CD2A2B
:10054800003058023E3003195702031CC82A5708C6
:10055800F1005808F200F301F4010030F8003D30D2
:10056800F7000930F6000030F500882472082000F2
:10057800CC007108CB00DC30A2008630A3004C0808
:10058800A5004B08A400D22A7B302000A2008630A8
:10059800D12AE6302000A2008630A30035307A2325
:1005A80035306A26003020000C1A0130560603192F
:1005B800FB2A00300C1A0130D6005608031DFB2A0E
:1005C8003B001B082000B3003308D30004303B0075
:1005D8009B0060309E0023309500F4309600D430A4
:1005E800930030309400200053083B009B0020000B
:1005F800560803194A2A4D09B3004E09B400B30A34
:100608000319B40A54083307D1005508343DD20001
:100618005208803AB3007F303302031D152BC530D2
:100628005102031C232B20005208803AB30080306B
:100638003302031D212B3C305102031C3B2B2000AD
:100648005508B4005408B3003408B300B401B335F6
:10065800B40D1730330784008030343D8500003FE7
:10066800D700013FD8005508CE005408CD0020001F
:100678004A085806031D422B4908570603194A2AF7
:100688005808CA005708C9003B001B082000B300DF
:100698003308D30004303B009B009E01200057081C
:1006A8003B009500200058083B00960020005808A1
:1006B800B4005708B300B436B30C3308CF0034087D
:1006C800D0004F083B009300200050083B009400E6
:1006D800200053083B009B000D302000B300FB3086
:1006E800890B742BB30B742B00324A2A2000B200FA
:1006F8002430A6002608AE002308A7002208A6007A
:10070800A20A0319A30A26088400270885000008FE
:10071800A8002808B10031080319832C25303106B8
:100728000319A22B3108A600320886008701260883
:1007380081000130A6002608B207802BAB01D42B1C
:100748002E0886008701403FAC00413FAD000230D3
:10075800A6002608AE072C082D04031DB72B003071
:10076800AC008730AD002C0884002D0885001200ED
:100778000319802B2C0884002D0885000008A6008A
:10078800320886008701260881000130AC07003056
:10079800AD3D0130A6002608B207B72B2B17F12B69
:1007A8002308A7002208A600A20A0319A30A2608FC
:1007B8008400270885000008B100003A0319832C3B
:1007C800643A0319F12B0D3A0319F12B1A3A03195C
:1007D800A42B063A0319D22B802B2B1B0A2C2E088C
:1007E80086008701403FAF00413FB0000230A600BD
:1007F8002608AE07B01F152C0330A6002608AB0448
:10080800AF09B009AF0A0319B00A152C2E088600E3
:100818008701403FAF00413FB0000230A6002608E4
:10082800AE07B101B10A0530310603193A2C310877
:10083800A600A701A635A70DF83026078400853045
:10084800273D8500003FA800013FA9002908300284
:10085800031D302C28082F02031C3A2C0130A60057
:100868002608B10705303106031D1B2C2B08033958
:100878000319492C2D30A600320886008701260866
:1008880081000130A6002608B2073108A600260814
:10089800AA00FF30A6002608AA072A0A0319802BF7
:1008A8000A30F9000030FA002A08A600A701A63588
:1008B800A70DF830260784008530273D8500003FC6
:1008C800F100013FF2003008F4002F08F3009725EB
:1008D8007208FC007108FB00CB257908303E200027
:1008E800A8002808B1003108A60032088600870150
:1008F800260881000130A6002608B2074D2C3208D0
:1009080086008701810108002000A101F41F992CAD
:10091800F109F209F309F409F10A0319F20A0319B2
:10092800F30A0319F40AA101A10AF81FAA2CF50970
:10093800F609F709F809F50A0319F60A0319F70A77
:100948000319F80A0130F9007908A1060030A5005A
:100958000030A4000030A3000030A2007408730423
:10096800720471040319F32CA001A00AF41BC82C0B
:100978000130F135F20DF30DF40D890BBD2C01306A
:10098800F9007908A007BA2C0130A235A30DA40DEF
:10099800A50D890BC92C74087802031DDD2C73087A
:1009A8007702031DDD2C72087602031DDD2C710809
:1009B8007502031CE82C7108F5027208F63B7308EF
:1009C800F73B7408F83B22140130F436F30CF20CB0
:1009D800F10C890BE92C0130A002031DC82C210859
:1009E8000319012DA209A309A409A509A20A03193B
:1009F800A30A0319A40A0319A50A2508F400240860
:100A0800F3002308F2002208F1000800003020005B
:100A1800A3000030A2000030A1000030A00074083C
:100A28007304720471040319542DA401A40AF41B5D
:100A3800292D0130F135F20DF30DF40D890B1E2D22
:100A48000130F9007908A4071B2D0130A035A10D4C
:100A5800A20DA30D890B2A2D74087802031D3E2DC3
:100A680073087702031D3E2D72087602031D3E2D82
:100A780071087502031C492D7108F5027208F63BCE
:100A88007308F73B7408F83B20140130F436F30C74
:100A9800F20CF10C890B4A2D0130A402031D292DFB
:100AA8002308F4002208F3002108F2002008F100CE
:100AB80008002000AB000030AF000030AE0000306E
:100AC800AD000030AC00B0012508300203187B2DC2
:100AD8002B08452671082000AC077208AD3D003090
:100AE800AE3DAF3D0130A7002708B007682D2508A7
:100AF800A700A801A901AA012A08F4002908F300FF
:100B08002808F2002708F1002F08F8002E08F7003F
:100B18002D08F6002C08F5000A2572082000A6000A
:100B28007108A5000800F601F7017108720403199D
:100B3800C62DF801F80AF21BAB2D0130F135F20D84
:100B4800890BA22D0130F5007508F8079F2D01309B
:100B5800F635F70D890BAC2D72087402031DB62DFE
:100B680071087302031CBD2D7108F3027208F43B6F
:100B780076140130F236F10C890BBE2D0130F802E3
:100B8800031DAB2D7708F2007608F10008007908FC
:100B98007A040319F32D2000A101A10AFA1BDE2D06
:100BA8000130F935FA0D890BD52D0130A000200848
:100BB800A107D22D7A087C02031DE42D79087B0257
:100BC800031CEA2D7908FB027A08FC3B0130FA364F
:100BD800F90C890BEB2D0130A102031DDE2D7C08D9
:100BE800FA007B08F9000800013400340A340034A4
:100BF80064340034E8340334103427340A340A34B3
:100C08002334233423342D342D342D3450344F34AD
:100C180057344534523421342D342D342D34233473
:100C2800233423340A3400343B009C019D01603096
:100C38009E009F01A0019201910130309400D430B0
:100C48009300F43096002330950098010130970006
:100C58009A019901C0309B00080022008C010430E1
:100C680023008C000B3024008C001F3021008C00E6
:100C78009517013022009D002700111612168B15BA
:100C88000800F4007408F300F30DF30D21001D08AB
:100C98007306833973069D001D149D149D18522EEA
:100CA8001C08F2001B08F10008000A3442347534AD
:100CB80069346C34643464346134743465343A347B
:100CC8002034253473340A340A340034F3007308AA
:100CD8008600870101080319080073088600870148
:100CE8000108F8260130F2007208F3076B2E46342B
:100CF8007234653471343A3420343E343634303406
:100D08006B3448347A340A340034483446345F3417
:100D18006D346F34643465343A34203425346434A3
:100D28000A34003441344434433420344D34533489
:100D380042343A342034253475340A34003470345B
:100D480077346D345F34703472343A342034253457
:100D580075340A3400344E346F34763420343334E6
:100D680030342034323430343134373400342700CE
:100D7800111A131EC12E13120800121E0800131E8A
:100D8800080013120800083023009F0090309D00CF
:100D980024309E0033309B009C0108000A34413403
:100DA800443443343A342034253475340A34003416
:100DB80046347234653471343A3420342534753409
:100DC8000A34003446347234653471343A34203489
:100DD80031340A340034013021009D0010309E0067
:100DE8009F019B019C010800F1002000111EF92EB3
:100DF800710823009A00080028346E3475346C3466
:100E08006C342934003431260D27EF261826C726DE
:0C0E1800080068302100990098010800D3
:020000040001F9
:04000E00E4FFFFFE0E
:00000001FF
